{
  "address": "0x37c27a8595C09A1073c40931c1A7Cdb5F7dadC7b",
  "abi": [
    {
      "inputs": [
        {
          "internalType": "address",
          "name": "_owner",
          "type": "address"
        }
      ],
      "stateMutability": "nonpayable",
      "type": "constructor"
    },
    {
      "anonymous": false,
      "inputs": [
        {
          "indexed": true,
          "internalType": "uint256",
          "name": "chargerId",
          "type": "uint256"
        },
        {
          "indexed": false,
          "internalType": "uint256",
          "name": "appointmentId",
          "type": "uint256"
        },
        {
          "indexed": false,
          "internalType": "uint256",
          "name": "startTime",
          "type": "uint256"
        },
        {
          "indexed": false,
          "internalType": "uint256",
          "name": "endTime",
          "type": "uint256"
        }
      ],
      "name": "AppointmentCreated",
      "type": "event"
    },
    {
      "anonymous": false,
      "inputs": [
        {
          "indexed": true,
          "internalType": "uint256",
          "name": "chargerId",
          "type": "uint256"
        },
        {
          "indexed": false,
          "internalType": "address",
          "name": "renter",
          "type": "address"
        },
        {
          "indexed": false,
          "internalType": "uint256",
          "name": "startTime",
          "type": "uint256"
        },
        {
          "indexed": false,
          "internalType": "uint256",
          "name": "endTime",
          "type": "uint256"
        }
      ],
      "name": "ChargerBooked",
      "type": "event"
    },
    {
      "anonymous": false,
      "inputs": [
        {
          "indexed": true,
          "internalType": "uint256",
          "name": "chargerId",
          "type": "uint256"
        },
        {
          "indexed": false,
          "internalType": "address",
          "name": "owner",
          "type": "address"
        },
        {
          "indexed": false,
          "internalType": "string",
          "name": "location",
          "type": "string"
        },
        {
          "indexed": false,
          "internalType": "uint256",
          "name": "pricePerHour",
          "type": "uint256"
        }
      ],
      "name": "ChargerListed",
      "type": "event"
    },
    {
      "anonymous": false,
      "inputs": [
        {
          "indexed": true,
          "internalType": "uint256",
          "name": "chargerId",
          "type": "uint256"
        }
      ],
      "name": "ChargerReleased",
      "type": "event"
    },
    {
      "anonymous": false,
      "inputs": [
        {
          "indexed": true,
          "internalType": "uint256",
          "name": "chargerId",
          "type": "uint256"
        },
        {
          "indexed": false,
          "internalType": "address",
          "name": "renter",
          "type": "address"
        },
        {
          "indexed": false,
          "internalType": "uint256",
          "name": "startTime",
          "type": "uint256"
        },
        {
          "indexed": false,
          "internalType": "uint256",
          "name": "endTime",
          "type": "uint256"
        }
      ],
      "name": "ChargerRented",
      "type": "event"
    },
    {
      "anonymous": false,
      "inputs": [
        {
          "indexed": true,
          "internalType": "uint256",
          "name": "chargerId",
          "type": "uint256"
        },
        {
          "indexed": false,
          "internalType": "bool",
          "name": "isActive",
          "type": "bool"
        }
      ],
      "name": "ChargerStatusChanged",
      "type": "event"
    },
    {
      "anonymous": false,
      "inputs": [
        {
          "indexed": false,
          "internalType": "address",
          "name": "from",
          "type": "address"
        },
        {
          "indexed": false,
          "internalType": "uint256",
          "name": "amount",
          "type": "uint256"
        }
      ],
      "name": "PaymentReceived",
      "type": "event"
    },
    {
      "inputs": [
        {
          "internalType": "uint256",
          "name": "chargerId",
          "type": "uint256"
        },
        {
          "internalType": "uint256",
          "name": "numHours",
          "type": "uint256"
        }
      ],
      "name": "bookCharger",
      "outputs": [],
      "stateMutability": "payable",
      "type": "function"
    },
    {
      "inputs": [
        {
          "internalType": "uint256",
          "name": "",
          "type": "uint256"
        }
      ],
      "name": "chargers",
      "outputs": [
        {
          "internalType": "uint256",
          "name": "chargerId",
          "type": "uint256"
        },
        {
          "internalType": "address payable",
          "name": "chargerOwner",
          "type": "address"
        },
        {
          "internalType": "string",
          "name": "location",
          "type": "string"
        },
        {
          "internalType": "uint256",
          "name": "pricePerHour",
          "type": "uint256"
        },
        {
          "internalType": "bool",
          "name": "available",
          "type": "bool"
        },
        {
          "internalType": "uint256",
          "name": "appointmentsCount",
          "type": "uint256"
        },
        {
          "internalType": "bool",
          "name": "isActive",
          "type": "bool"
        }
      ],
      "stateMutability": "view",
      "type": "function"
    },
    {
      "inputs": [],
      "name": "chargersCount",
      "outputs": [
        {
          "internalType": "uint256",
          "name": "",
          "type": "uint256"
        }
      ],
      "stateMutability": "view",
      "type": "function"
    },
    {
      "inputs": [
        {
          "internalType": "uint256",
          "name": "chargerId",
          "type": "uint256"
        },
        {
          "internalType": "uint256",
          "name": "appointmentId",
          "type": "uint256"
        }
      ],
      "name": "getAppointmentDetails",
      "outputs": [
        {
          "internalType": "uint256",
          "name": "id",
          "type": "uint256"
        },
        {
          "internalType": "address",
          "name": "renter",
          "type": "address"
        },
        {
          "internalType": "uint256",
          "name": "startTime",
          "type": "uint256"
        },
        {
          "internalType": "uint256",
          "name": "endTime",
          "type": "uint256"
        },
        {
          "internalType": "bool",
          "name": "isActive",
          "type": "bool"
        }
      ],
      "stateMutability": "view",
      "type": "function"
    },
    {
      "inputs": [],
      "name": "greeting",
      "outputs": [
        {
          "internalType": "string",
          "name": "",
          "type": "string"
        }
      ],
      "stateMutability": "view",
      "type": "function"
    },
    {
      "inputs": [
        {
          "internalType": "string",
          "name": "location",
          "type": "string"
        },
        {
          "internalType": "uint256",
          "name": "pricePerHour",
          "type": "uint256"
        }
      ],
      "name": "listCharger",
      "outputs": [],
      "stateMutability": "nonpayable",
      "type": "function"
    },
    {
      "inputs": [],
      "name": "owner",
      "outputs": [
        {
          "internalType": "address",
          "name": "",
          "type": "address"
        }
      ],
      "stateMutability": "view",
      "type": "function"
    },
    {
      "inputs": [
        {
          "internalType": "uint256",
          "name": "chargerId",
          "type": "uint256"
        }
      ],
      "name": "setChargerInactive",
      "outputs": [],
      "stateMutability": "nonpayable",
      "type": "function"
    },
    {
      "inputs": [],
      "name": "withdraw",
      "outputs": [],
      "stateMutability": "nonpayable",
      "type": "function"
    },
    {
      "stateMutability": "payable",
      "type": "receive"
    }
  ],
  "transactionHash": "0xa96ad637a712383d7f289a5c2b3d406a1e03b54ffa033fa1f72f986a4d2cf7d8",
  "args": [
    "0x714923197a280388C7c83f5466958F35489875f7"
  ],
  "numDeployments": 2,
  "solcInputHash": "9bcd95b48fbfc408c9e71cf1cc59360c",
  "bytecode": "0x60e0604052601460a09081527f4275696c64696e6720455620644170707321212100000000000000000000000060c0526002906200003e90826200012b565b503480156200004c57600080fd5b506040516200114c3803806200114c8339810160408190526200006f91620001f7565b60016000556001600160a01b031660805262000229565b634e487b7160e01b600052604160045260246000fd5b600181811c90821680620000b157607f821691505b602082108103620000d257634e487b7160e01b600052602260045260246000fd5b50919050565b601f8211156200012657600081815260208120601f850160051c81016020861015620001015750805b601f850160051c820191505b8181101562000122578281556001016200010d565b5050505b505050565b81516001600160401b0381111562000147576200014762000086565b6200015f816200015884546200009c565b84620000d8565b602080601f8311600181146200019757600084156200017e5750858301515b600019600386901b1c1916600185901b17855562000122565b600085815260208120601f198616915b82811015620001c857888601518255948401946001909101908401620001a7565b5085821015620001e75787850151600019600388901b60f8161c191681555b5050505050600190811b01905550565b6000602082840312156200020a57600080fd5b81516001600160a01b03811681146200022257600080fd5b9392505050565b608051610ef26200025a6000396000818161014d015281816105b80152818161061901526107e50152610ef26000f3fe60806040526004361061008a5760003560e01c80638da5cb5b116100595780638da5cb5b1461013b578063b6e1ebc414610187578063e7469452146101a7578063ef690cc0146101da578063f848ac25146101fc57600080fd5b806307473af4146100965780631545fa38146100ab5780633ccfd60b146100d45780633fd13886146100e957600080fd5b3661009157005b600080fd5b6100a96100a4366004610b28565b61021c565b005b3480156100b757600080fd5b506100c160045481565b6040519081526020015b60405180910390f35b3480156100e057600080fd5b506100a96105ad565b3480156100f557600080fd5b50610109610104366004610b28565b6106d2565b604080519586526001600160a01b0390941660208601529284019190915260608301521515608082015260a0016100cb565b34801561014757600080fd5b5061016f7f000000000000000000000000000000000000000000000000000000000000000081565b6040516001600160a01b0390911681526020016100cb565b34801561019357600080fd5b506100a96101a2366004610b4a565b6107d9565b3480156101b357600080fd5b506101c76101c2366004610b4a565b610910565b6040516100cb9796959493929190610ba9565b3480156101e657600080fd5b506101ef6109e3565b6040516100cb9190610bfb565b34801561020857600080fd5b506100a9610217366004610c2b565b610a71565b60008281526003602052604090206007015460ff1661027b5760405162461bcd60e51b815260206004820152601660248201527521b430b933b2b91034b9903737ba1030b1ba34bb329760511b60448201526064015b60405180910390fd5b60008281526003602052604090206004015460ff166102e65760405162461bcd60e51b815260206004820152602160248201527f436861726765722069732063757272656e746c7920756e617661696c61626c656044820152601760f91b6064820152608401610272565b600082815260036020819052604090912090810154610306908390610cf6565b34101561034d5760405162461bcd60e51b815260206004820152601560248201527424b739bab33334b1b4b2b73a103830bcb6b2b73a1760591b6044820152606401610272565b42600061035c84610e10610cf6565b6103669083610d13565b600086815260036020526040812060048101805460ff1916905560060180549293509091908261039583610d26565b9190505590506040518060a00160405280828152602001336001600160a01b03168152602001848152602001838152602001600115158152506003600088815260200190815260200160002060050160008381526020019081526020016000206000820151816000015560208201518160010160006101000a8154816001600160a01b0302191690836001600160a01b03160217905550604082015181600201556060820151816003015560808201518160040160006101000a81548160ff021916908315150217905550905050857f2129c95dc543a0aedfa01194c4729c4baae9677e22e6fa92c8aa43cbc72d200e3385856040516104b3939291906001600160a01b039390931683526020830191909152604082015260600190565b60405180910390a2604080513381523460208201527f6ef95f06320e7a25a04a175ca677b7052bdd97131872c2192525a629f51be770910160405180910390a16000868152600360205260408082206001015490516001600160a01b039091169034908381818185875af1925050503d806000811461054e576040519150601f19603f3d011682016040523d82523d6000602084013e610553565b606091505b50509050806105a45760405162461bcd60e51b815260206004820152601760248201527f4661696c656420746f2073656e64207061796d656e742e0000000000000000006044820152606401610272565b50505050505050565b336001600160a01b037f000000000000000000000000000000000000000000000000000000000000000016146106155760405162461bcd60e51b815260206004820152600d60248201526c2737ba103a34329027bbb732b960991b6044820152606401610272565b60007f00000000000000000000000000000000000000000000000000000000000000006001600160a01b03164760405160006040518083038185875af1925050503d8060008114610682576040519150601f19603f3d011682016040523d82523d6000602084013e610687565b606091505b50509050806106cf5760405162461bcd60e51b81526020600482015260146024820152732330b4b632b2103a379039b2b7321022ba3432b960611b6044820152606401610272565b50565b6000806000806000600454871061072b5760405162461bcd60e51b815260206004820152601760248201527f4368617267657220646f6573206e6f742065786973742e0000000000000000006044820152606401610272565b600087815260036020526040902060060154861061078b5760405162461bcd60e51b815260206004820152601b60248201527f4170706f696e746d656e7420646f6573206e6f742065786973742e00000000006044820152606401610272565b505050600093845250506003602081815260408085209385526005909301905291208054600182015460028301549383015460049093015491946001600160a01b0390911693929160ff1690565b80336001600160a01b037f000000000000000000000000000000000000000000000000000000000000000016148061082a57506000818152600360205260409020600101546001600160a01b031633145b6108675760405162461bcd60e51b815260206004820152600e60248201526d139bdd08185d5d1a1bdc9a5e995960921b6044820152606401610272565b6000828152600360205260409020600781015460ff166108c95760405162461bcd60e51b815260206004820152601860248201527f4368617267657220616c726561647920696e61637469766500000000000000006044820152606401610272565b60078101805460ff191690556040516000815283907fc1796ed1026d5ae5c8b1eb64fadab4b1e5013ab15a21a764672c838c5f3324809060200160405180910390a2505050565b60036020526000908152604090208054600182015460028301805492936001600160a01b039092169261094290610d3f565b80601f016020809104026020016040519081016040528092919081815260200182805461096e90610d3f565b80156109bb5780601f10610990576101008083540402835291602001916109bb565b820191906000526020600020905b81548152906001019060200180831161099e57829003601f168201915b505050506003830154600484015460068501546007909501549394919360ff91821693501687565b600280546109f090610d3f565b80601f0160208091040260200160405190810160405280929190818152602001828054610a1c90610d3f565b8015610a695780601f10610a3e57610100808354040283529160200191610a69565b820191906000526020600020905b815481529060010190602001808311610a4c57829003601f168201915b505050505081565b60045460008181526003602052604090209081556001810180546001600160a01b0319163317905560028101610aa78482610dc8565b506003810182905560048082018054600160ff1991821681179092556007840180549091169091179055546040517fc2d43323c2adb1f0e5d10a2cf464d8486c1b7f03300f32baa4b46ca6c00e509e90610b0690339087908790610e88565b60405180910390a260048054906000610b1e83610d26565b9190505550505050565b60008060408385031215610b3b57600080fd5b50508035926020909101359150565b600060208284031215610b5c57600080fd5b5035919050565b6000815180845260005b81811015610b8957602081850181015186830182015201610b6d565b506000602082860101526020601f19601f83011685010191505092915050565b8781526001600160a01b038716602082015260e060408201819052600090610bd390830188610b63565b606083019690965250921515608084015260a0830191909152151560c0909101529392505050565b602081526000610c0e6020830184610b63565b9392505050565b634e487b7160e01b600052604160045260246000fd5b60008060408385031215610c3e57600080fd5b823567ffffffffffffffff80821115610c5657600080fd5b818501915085601f830112610c6a57600080fd5b813581811115610c7c57610c7c610c15565b604051601f8201601f19908116603f01168101908382118183101715610ca457610ca4610c15565b81604052828152886020848701011115610cbd57600080fd5b826020860160208301376000602093820184015298969091013596505050505050565b634e487b7160e01b600052601160045260246000fd5b8082028115828204841417610d0d57610d0d610ce0565b92915050565b80820180821115610d0d57610d0d610ce0565b600060018201610d3857610d38610ce0565b5060010190565b600181811c90821680610d5357607f821691505b602082108103610d7357634e487b7160e01b600052602260045260246000fd5b50919050565b601f821115610dc357600081815260208120601f850160051c81016020861015610da05750805b601f850160051c820191505b81811015610dbf57828155600101610dac565b5050505b505050565b815167ffffffffffffffff811115610de257610de2610c15565b610df681610df08454610d3f565b84610d79565b602080601f831160018114610e2b5760008415610e135750858301515b600019600386901b1c1916600185901b178555610dbf565b600085815260208120601f198616915b82811015610e5a57888601518255948401946001909101908401610e3b565b5085821015610e785787850151600019600388901b60f8161c191681555b5050505050600190811b01905550565b6001600160a01b0384168152606060208201819052600090610eac90830185610b63565b905082604083015294935050505056fea2646970667358221220f2fc3c4c10e15d963d619e1a86658e94da6059dc97550fad6642b1e0ad99b63964736f6c63430008110033",
  "devdoc": {
    "author": "BuidlGuidl",
    "kind": "dev",
    "methods": {},
    "version": 1
  },
  "userdoc": {
    "kind": "user",
    "methods": {
      "withdraw()": {
        "notice": "Function that allows the owner to withdraw all the Ether in the contract The function can only be called by the owner of the contract as defined by the isOwner modifier"
      }
    },
    "notice": "A smart contract that allows changing a state variable of the contract and tracking the changes It also allows the owner to withdraw the Ether in the contract",
    "version": 1
  },
  "storageLayout": {
    "storage": [
      {
        "astId": 10,
        "contract": "contracts/YourContract.sol:YourContract",
        "label": "_status",
        "offset": 0,
        "slot": "0",
        "type": "t_uint256"
      },
      {
        "astId": 77,
        "contract": "contracts/YourContract.sol:YourContract",
        "label": "pendingWithdrawals",
        "offset": 0,
        "slot": "1",
        "type": "t_mapping(t_address,t_uint256)"
      },
      {
        "astId": 80,
        "contract": "contracts/YourContract.sol:YourContract",
        "label": "greeting",
        "offset": 0,
        "slot": "2",
        "type": "t_string_storage"
      },
      {
        "astId": 116,
        "contract": "contracts/YourContract.sol:YourContract",
        "label": "chargers",
        "offset": 0,
        "slot": "3",
        "type": "t_mapping(t_uint256,t_struct(Charger)111_storage)"
      },
      {
        "astId": 118,
        "contract": "contracts/YourContract.sol:YourContract",
        "label": "chargersCount",
        "offset": 0,
        "slot": "4",
        "type": "t_uint256"
      }
    ],
    "types": {
      "t_address": {
        "encoding": "inplace",
        "label": "address",
        "numberOfBytes": "20"
      },
      "t_address_payable": {
        "encoding": "inplace",
        "label": "address payable",
        "numberOfBytes": "20"
      },
      "t_bool": {
        "encoding": "inplace",
        "label": "bool",
        "numberOfBytes": "1"
      },
      "t_mapping(t_address,t_uint256)": {
        "encoding": "mapping",
        "key": "t_address",
        "label": "mapping(address => uint256)",
        "numberOfBytes": "32",
        "value": "t_uint256"
      },
      "t_mapping(t_uint256,t_struct(Charger)111_storage)": {
        "encoding": "mapping",
        "key": "t_uint256",
        "label": "mapping(uint256 => struct YourContract.Charger)",
        "numberOfBytes": "32",
        "value": "t_struct(Charger)111_storage"
      },
      "t_mapping(t_uint256,t_struct(RentalAppointment)91_storage)": {
        "encoding": "mapping",
        "key": "t_uint256",
        "label": "mapping(uint256 => struct YourContract.RentalAppointment)",
        "numberOfBytes": "32",
        "value": "t_struct(RentalAppointment)91_storage"
      },
      "t_string_storage": {
        "encoding": "bytes",
        "label": "string",
        "numberOfBytes": "32"
      },
      "t_struct(Charger)111_storage": {
        "encoding": "inplace",
        "label": "struct YourContract.Charger",
        "members": [
          {
            "astId": 93,
            "contract": "contracts/YourContract.sol:YourContract",
            "label": "chargerId",
            "offset": 0,
            "slot": "0",
            "type": "t_uint256"
          },
          {
            "astId": 95,
            "contract": "contracts/YourContract.sol:YourContract",
            "label": "chargerOwner",
            "offset": 0,
            "slot": "1",
            "type": "t_address_payable"
          },
          {
            "astId": 97,
            "contract": "contracts/YourContract.sol:YourContract",
            "label": "location",
            "offset": 0,
            "slot": "2",
            "type": "t_string_storage"
          },
          {
            "astId": 99,
            "contract": "contracts/YourContract.sol:YourContract",
            "label": "pricePerHour",
            "offset": 0,
            "slot": "3",
            "type": "t_uint256"
          },
          {
            "astId": 101,
            "contract": "contracts/YourContract.sol:YourContract",
            "label": "available",
            "offset": 0,
            "slot": "4",
            "type": "t_bool"
          },
          {
            "astId": 106,
            "contract": "contracts/YourContract.sol:YourContract",
            "label": "appointments",
            "offset": 0,
            "slot": "5",
            "type": "t_mapping(t_uint256,t_struct(RentalAppointment)91_storage)"
          },
          {
            "astId": 108,
            "contract": "contracts/YourContract.sol:YourContract",
            "label": "appointmentsCount",
            "offset": 0,
            "slot": "6",
            "type": "t_uint256"
          },
          {
            "astId": 110,
            "contract": "contracts/YourContract.sol:YourContract",
            "label": "isActive",
            "offset": 0,
            "slot": "7",
            "type": "t_bool"
          }
        ],
        "numberOfBytes": "256"
      },
      "t_struct(RentalAppointment)91_storage": {
        "encoding": "inplace",
        "label": "struct YourContract.RentalAppointment",
        "members": [
          {
            "astId": 82,
            "contract": "contracts/YourContract.sol:YourContract",
            "label": "rentalAppointmentId",
            "offset": 0,
            "slot": "0",
            "type": "t_uint256"
          },
          {
            "astId": 84,
            "contract": "contracts/YourContract.sol:YourContract",
            "label": "renter",
            "offset": 0,
            "slot": "1",
            "type": "t_address"
          },
          {
            "astId": 86,
            "contract": "contracts/YourContract.sol:YourContract",
            "label": "startTime",
            "offset": 0,
            "slot": "2",
            "type": "t_uint256"
          },
          {
            "astId": 88,
            "contract": "contracts/YourContract.sol:YourContract",
            "label": "endTime",
            "offset": 0,
            "slot": "3",
            "type": "t_uint256"
          },
          {
            "astId": 90,
            "contract": "contracts/YourContract.sol:YourContract",
            "label": "isActive",
            "offset": 0,
            "slot": "4",
            "type": "t_bool"
          }
        ],
        "numberOfBytes": "160"
      },
      "t_uint256": {
        "encoding": "inplace",
        "label": "uint256",
        "numberOfBytes": "32"
      }
    }
  }
}